:080000001001040000000000E3
:100200000000E0004220AF00040037008313090023
:10021000000000000000E900FCFF3A0000000600BA
:100220000F782200F07F220020A0B700000000001D
:1002300081E0A800A8A2EF00D4FF2F0034168800A8
:10024000C622A900CA22A900C622A900CA22AA0061
:10025000401F2000000102000000000024010400F3
:08026000000000000040FE0058
:0200000401F009
:1000000002C3FF003F00FF003087FF000F31FF00F9
:0C0010000F33FF000700FF0003C0FF00DB
:00000001FF
;DSPIC30F6014A
;CRC=C14E  CREATED="27-May-25 20:11"
